{"abi":[{"type":"constructor","inputs":[{"name":"_alignedServiceAddr","type":"address","internalType":"address payable"}],"stateMutability":"nonpayable"},{"type":"function","name":"validateAccount","inputs":[{"name":"args","type":"tuple","internalType":"struct MinaAccountValidationExample.AlignedArgs","components":[{"name":"proofCommitment","type":"bytes32","internalType":"bytes32"},{"name":"provingSystemAuxDataCommitment","type":"bytes32","internalType":"bytes32"},{"name":"proofGeneratorAddr","type":"bytes20","internalType":"bytes20"},{"name":"batchMerkleRoot","type":"bytes32","internalType":"bytes32"},{"name":"merkleProof","type":"bytes","internalType":"bytes"},{"name":"verificationDataBatchIndex","type":"uint256","internalType":"uint256"},{"name":"pubInput","type":"bytes","internalType":"bytes"},{"name":"batcherPaymentService","type":"address","internalType":"address"}]}],"outputs":[{"name":"","type":"bool","internalType":"bool"}],"stateMutability":"view"},{"type":"function","name":"validateAccountAndReturn","inputs":[{"name":"args","type":"tuple","internalType":"struct MinaAccountValidationExample.AlignedArgs","components":[{"name":"proofCommitment","type":"bytes32","internalType":"bytes32"},{"name":"provingSystemAuxDataCommitment","type":"bytes32","internalType":"bytes32"},{"name":"proofGeneratorAddr","type":"bytes20","internalType":"bytes20"},{"name":"batchMerkleRoot","type":"bytes32","internalType":"bytes32"},{"name":"merkleProof","type":"bytes","internalType":"bytes"},{"name":"verificationDataBatchIndex","type":"uint256","internalType":"uint256"},{"name":"pubInput","type":"bytes","internalType":"bytes"},{"name":"batcherPaymentService","type":"address","internalType":"address"}]}],"outputs":[{"name":"","type":"tuple","internalType":"struct MinaAccountValidationExample.Account","components":[{"name":"publicKey","type":"tuple","internalType":"struct MinaAccountValidationExample.CompressedECPoint","components":[{"name":"x","type":"bytes32","internalType":"bytes32"},{"name":"isOdd","type":"bool","internalType":"bool"}]},{"name":"tokenIdKeyHash","type":"bytes32","internalType":"bytes32"},{"name":"tokenSymbol","type":"string","internalType":"string"},{"name":"balance","type":"uint64","internalType":"uint64"},{"name":"nonce","type":"uint32","internalType":"uint32"},{"name":"receiptChainHash","type":"bytes32","internalType":"bytes32"},{"name":"delegate","type":"tuple","internalType":"struct MinaAccountValidationExample.CompressedECPoint","components":[{"name":"x","type":"bytes32","internalType":"bytes32"},{"name":"isOdd","type":"bool","internalType":"bool"}]},{"name":"votingFor","type":"bytes32","internalType":"bytes32"},{"name":"timing","type":"tuple","internalType":"struct MinaAccountValidationExample.Timing","components":[{"name":"initialMinimumBalance","type":"uint64","internalType":"uint64"},{"name":"cliffTime","type":"uint32","internalType":"uint32"},{"name":"cliffAmount","type":"uint64","internalType":"uint64"},{"name":"vestingPeriod","type":"uint32","internalType":"uint32"},{"name":"vestingIncrement","type":"uint64","internalType":"uint64"}]},{"name":"permissions","type":"tuple","internalType":"struct MinaAccountValidationExample.Permissions","components":[{"name":"editState","type":"uint8","internalType":"enum MinaAccountValidationExample.AuthRequired"},{"name":"access","type":"uint8","internalType":"enum MinaAccountValidationExample.AuthRequired"},{"name":"send","type":"uint8","internalType":"enum MinaAccountValidationExample.AuthRequired"},{"name":"rreceive","type":"uint8","internalType":"enum MinaAccountValidationExample.AuthRequired"},{"name":"setDelegate","type":"uint8","internalType":"enum MinaAccountValidationExample.AuthRequired"},{"name":"setPermissions","type":"uint8","internalType":"enum MinaAccountValidationExample.AuthRequired"},{"name":"setVerificationKeyAuth","type":"uint8","internalType":"enum MinaAccountValidationExample.AuthRequired"},{"name":"setVerificationKeyUint","type":"uint32","internalType":"uint32"},{"name":"setZkappUri","type":"uint8","internalType":"enum MinaAccountValidationExample.AuthRequired"},{"name":"editActionState","type":"uint8","internalType":"enum MinaAccountValidationExample.AuthRequired"},{"name":"setTokenSymbol","type":"uint8","internalType":"enum MinaAccountValidationExample.AuthRequired"},{"name":"incrementNonce","type":"uint8","internalType":"enum MinaAccountValidationExample.AuthRequired"},{"name":"setVotingFor","type":"uint8","internalType":"enum MinaAccountValidationExample.AuthRequired"},{"name":"setTiming","type":"uint8","internalType":"enum MinaAccountValidationExample.AuthRequired"}]},{"name":"zkapp","type":"tuple","internalType":"struct MinaAccountValidationExample.ZkappAccount","components":[{"name":"appState","type":"bytes32[8]","internalType":"bytes32[8]"},{"name":"verificationKey","type":"tuple","internalType":"struct MinaAccountValidationExample.VerificationKey","components":[{"name":"maxProofsVerified","type":"uint8","internalType":"enum MinaAccountValidationExample.ProofsVerified"},{"name":"actualWrapDomainSize","type":"uint8","internalType":"enum MinaAccountValidationExample.ProofsVerified"},{"name":"wrapIndex","type":"tuple","internalType":"struct MinaAccountValidationExample.WrapIndex","components":[{"name":"sigmaComm","type":"tuple[7]","internalType":"struct MinaAccountValidationExample.Commitment[7]","components":[{"name":"x","type":"bytes32","internalType":"bytes32"},{"name":"y","type":"bytes32","internalType":"bytes32"}]},{"name":"coefficientsComm","type":"tuple[15]","internalType":"struct MinaAccountValidationExample.Commitment[15]","components":[{"name":"x","type":"bytes32","internalType":"bytes32"},{"name":"y","type":"bytes32","internalType":"bytes32"}]},{"name":"genericComm","type":"tuple","internalType":"struct MinaAccountValidationExample.Commitment","components":[{"name":"x","type":"bytes32","internalType":"bytes32"},{"name":"y","type":"bytes32","internalType":"bytes32"}]},{"name":"psmComm","type":"tuple","internalType":"struct MinaAccountValidationExample.Commitment","components":[{"name":"x","type":"bytes32","internalType":"bytes32"},{"name":"y","type":"bytes32","internalType":"bytes32"}]},{"name":"completeAddComm","type":"tuple","internalType":"struct MinaAccountValidationExample.Commitment","components":[{"name":"x","type":"bytes32","internalType":"bytes32"},{"name":"y","type":"bytes32","internalType":"bytes32"}]},{"name":"mulComm","type":"tuple","internalType":"struct MinaAccountValidationExample.Commitment","components":[{"name":"x","type":"bytes32","internalType":"bytes32"},{"name":"y","type":"bytes32","internalType":"bytes32"}]},{"name":"emulComm","type":"tuple","internalType":"struct MinaAccountValidationExample.Commitment","components":[{"name":"x","type":"bytes32","internalType":"bytes32"},{"name":"y","type":"bytes32","internalType":"bytes32"}]},{"name":"endomulScalarComm","type":"tuple","internalType":"struct MinaAccountValidationExample.Commitment","components":[{"name":"x","type":"bytes32","internalType":"bytes32"},{"name":"y","type":"bytes32","internalType":"bytes32"}]}]}]},{"name":"zkappVersion","type":"uint32","internalType":"uint32"},{"name":"actionState","type":"bytes32[5]","internalType":"bytes32[5]"},{"name":"lastActionSlot","type":"uint32","internalType":"uint32"},{"name":"provedState","type":"bool","internalType":"bool"},{"name":"zkappUri","type":"bytes","internalType":"bytes"}]}]}],"stateMutability":"view"},{"type":"error","name":"MinaAccountProvingSystemIdIsNotValid","inputs":[{"name":"","type":"bytes32","internalType":"bytes32"}]}],"bytecode":{"object":"0x608034606f57601f61121538819003918201601f19168301916001600160401b03831184841017607357808492602094604052833981010312606f57516001600160a01b03811690819003606f575f80546001600160a01b03191691909117905560405161118d90816100888239f35b5f80fd5b634e487b7160e01b5f52604160045260245ffdfe60806040526004361015610011575f80fd5b5f3560e01c80639029ad15146104445763c64787131461002f575f80fd5b34610440576100456100403661056b565b6108c9565b604051809160208252610068602083018251602080918051845201511515910152565b6020810151606083015261014061009060408301516103c060808601526103e085019061059f565b916001600160401b0360608201511660a085015263ffffffff60808201511660c085015260a081015160e08501526100dd60c0820151610100860190602080918051845201511515910152565b60e0810151828501526001600160401b0360806101008301518281511661016088015263ffffffff602082015116610180880152826040820151166101a088015263ffffffff6060820151166101c08801520151166101e08501526102456101a0610120830151610153610200880182516105c3565b61016660208201516102208901906105c3565b61017960408201516102408901906105c3565b61018c60608201516102608901906105c3565b61019f60808201516102808901906105c3565b6101b260a08201516102a08901906105c3565b6101c560c08201516102c08901906105c3565b63ffffffff60e0820151166102e08801526101ea6101008201516103008901906105c3565b6101fe6101208201516103208901906105c3565b610210858201516103408901906105c3565b6102246101608201516103608901906105c3565b6102386101808201516103808901906105c3565b01516103a08601906105c3565b0151828203601f19016103c084015280515f835b60088210610426575050506040602082015161027a610100850182516105e4565b61028d60208201516101208601906105e4565b015180515f61014085015b600782106103f25750505060208101515f61030085015b600f82106103be5750505060e081602060408194015180516106c088015201516106e086015282606082015180516107008801520151610720860152826080820151805161074088015201516107608601528260a0820151805161078088015201516107a08601528260c082015180516107c088015201516107e086015201518051610800850152015161082083015263ffffffff604082015116610840830152606081015161086083015f905b600582106103a457505050608081015163ffffffff1661090083015260a0810151151561092083015260c0015161096061094083018190526103a092019061059f565b0390f35b82518152869550602092830192600192909201910161035d565b8293949596506103e4602091600193945190602060409280518352015160208201520190565b9301910186959493926102af565b829394959650610418602091600193945190602060409280518352015160208201520190565b930191018695949392610298565b825181528695506020928301926001929092019101610259565b5f80fd5b34610440576104523661056b565b6020810135907fee2a4bc7db81da2b7164e56b3649b1e2a09c58c455b15dabddd9146c7582cebc8203610558578061049961049260c060209401836105f1565b3691610718565b8281519101209260018060a01b035f5416906104b76040840161075d565b906105016104c860808601866105f1565b90976104d660e08801610777565b91604051998a98899788976306045a9160e01b895260a0830135956060840135933560048b016107a3565b03915afa801561054d576020915f91610520575b506040519015158152f35b6105409150823d8411610546575b61053881836106f7565b81019061078b565b82610515565b503d61052e565b6040513d5f823e3d90fd5b5063060bd7bf60e21b5f5260045260245ffd5b602060031982011261044057600435906001600160401b038211610440576101009082900360031901126104405760040190565b805180835260209291819084018484015e5f828201840152601f01601f1916010190565b9060058210156105d05752565b634e487b7160e01b5f52602160045260245ffd5b9060038210156105d05752565b903590601e198136030182121561044057018035906001600160401b0382116104405760200191813603831361044057565b604081019081106001600160401b0382111761063e57604052565b634e487b7160e01b5f52604160045260245ffd5b61016081019081106001600160401b0382111761063e57604052565b60a081019081106001600160401b0382111761063e57604052565b6101c081019081106001600160401b0382111761063e57604052565b60e081019081106001600160401b0382111761063e57604052565b606081019081106001600160401b0382111761063e57604052565b61010081019081106001600160401b0382111761063e57604052565b90601f801991011681019081106001600160401b0382111761063e57604052565b9291926001600160401b03821161063e5760405191610741601f8201601f1916602001846106f7565b829481845281830111610440578281602093845f960137010152565b356bffffffffffffffffffffffff19811681036104405790565b356001600160a01b03811681036104405790565b90816020910312610440575180151581036104405790565b97999895919387949360e0989461012097938b5260208b015260408a01526bffffffffffffffffffffffff19166060890152608088015261010060a088015281610100880152838701375f828287010152601f80199101168401019460c084015260018060a01b0316910152565b5f5b82811061081f57505050565b60209060405161082e81610623565b5f81525f838201528184015201610813565b3590811515820361044057565b91908260409103126104405760405161086581610623565b60206108778183958035855201610840565b910152565b35906001600160401b038216820361044057565b359063ffffffff8216820361044057565b9190826040910312610440576040516108b981610623565b6020808294803584520135910152565b604051906108d682610652565b6040516108e281610623565b5f81525f602082015282525f6020830152606060408301525f60608301525f60808301525f60a083015260405161091881610623565b5f81525f602082015260c08301525f60e08301526040516109388161066e565b5f81525f60208201525f60408201525f60608201525f608082015261010083015260405161096581610689565b5f81525f60208201525f60408201525f60608201525f60808201525f60a08201525f60c08201525f60e08201525f6101008201525f6101208201525f6101408201525f6101608201525f6101808201525f6101a0820152610120830152604051906109cf826106a5565b610100906040516109e083826106f7565b823682378352604051926109f3846106c0565b5f84525f602085015260405193610a09856106db565b60e094604051610a1987826106f7565b610a238782610811565b8152604051610a3e6101e0610a3881846106f7565b82610811565b6020820152604051610a4f81610623565b5f81525f60208201526040820152604051610a6981610623565b5f81525f60208201526060820152604051610a8381610623565b5f81525f60208201526080820152604051610a9d81610623565b5f81525f602082015260a0820152604051610ab781610623565b5f81525f602082015260c0820152604051610ad181610623565b5f81525f602082015286820152604082015260208201525f604082015261014060a095604051610b0188826106f7565b8736823760608401525f60808401525f87840152606060c0840152015260208101357fee2a4bc7db81da2b7164e56b3649b1e2a09c58c455b15dabddd9146c7582cebc81036111455781602060c0820192610b5f61049285856105f1565b8281519101209060018060a01b035f54169089610bc68a610b826040890161075d565b95610b9d610b9360808b018b6105f1565b9190938b01610777565b926040519a8b998a9889986306045a9160e01b8a52830135956060840135933560048b016107a3565b03915afa90811561054d575f91611126575b501561044057610be7916105f1565b806028939293116104405782019160208184036027190112610440576028810135906001600160401b03821161044057018083036027190194906103c086126104405760405195610c3787610652565b610c44856028840161084d565b87526068820135602088015260888201356001600160401b0381116104405760289083010185601f820112156104405785816020610c8493359101610718565b6040880152610c9560a8830161087c565b6060880152610ca660c88301610890565b608088015260e882013583880152610cc285610108840161084d565b60c0880152610148820135868801528261013f19820112610440576101c090604051610ced8161066e565b610cfa610168850161087c565b8152610d096101888501610890565b6020820152610d1b6101a8850161087c565b6040820152610d2d6101c88501610890565b6060820152610d3f6101e8850161087c565b6080820152888601526101df19011261044057604051610d5e81610689565b610208820135600581101561044057815261022882013560058110156104405760208201526102488201356005811015610440576040820152610268820135600581101561044057606082015261028882013560058110156104405760808201526102a8820135600581101561044057838201526102c882013560058110156104405760c0820152610df36102e88301610890565b86820152610308820135600581101561044057848201526103288201356005811015610440576101208201526103488201356005811015610440576101408201526103688201356005811015610440576101608201526103888201356005811015610440576101808201526103a88201356005811015610440576101a08201526101208701526103c88101356001600160401b038111610440576028910101918284039461096086126104405760405195610ead876106a5565b85601f8601121561044057604051610ec7610100826106f7565b80938601938785116104405786905b858210611116575050875261074060ff198201126104405760405192610efb846106c0565b3560038110156104405783526101208501359060038210156104405761070091602085015261013f1901126104405760405190610f37826106db565b8561015f8601121561044057604051610f5160e0826106f7565b80610300870191888311610440576101408801905b8382106110fc57505083528661031f8701121561044057604051610f8c6101e0826106f7565b806106c0880192898411610440578992915b8482106110de5750506020850152610fb5916108a1565b6040830152610fc88661070087016108a1565b6060830152610fdb8661074087016108a1565b6080830152610fee8661078087016108a1565b84830152611000866107c087016108a1565b60c08301526110138661080087016108a1565b908201526040820152602085015261102e6108408301610890565b60408501528261087f830112156104405760405161104d60a0826106f7565b80610900840191858311610440576108608501905b8382106110ce575050606086015261107990610890565b608085015261108b6109208301610840565b90840152610940810135906001600160401b03821161044057019080601f83011215610440578160206110c093359101610718565b60c082015261014082015290565b8135815260209182019101611062565b6020906110ef8394956040946108a1565b8152019101899291610f9e565b602060409161110b8c856108a1565b815201910190610f66565b8135815260209182019101610ed6565b61113f915060203d6020116105465761053881836106f7565b5f610bd8565b63060bd7bf60e21b5f5260045260245ffdfea264697066735822122044e50d3ef53c79ac6616ce53106560ea6b49950bc2ae1123f6dccfcc063eb95764736f6c634300081e0033","linkReferences":{}},"methodIdentifiers":{"validateAccount((bytes32,bytes32,bytes20,bytes32,bytes,uint256,bytes,address))":"9029ad15","validateAccountAndReturn((bytes32,bytes32,bytes20,bytes32,bytes,uint256,bytes,address))":"c6478713"},"id":39}