{"abi":[{"type":"constructor","inputs":[{"name":"_alignedServiceAddr","type":"address","internalType":"address payable"},{"name":"_tipStateHash","type":"bytes32","internalType":"bytes32"},{"name":"_devnetFlag","type":"bool","internalType":"bool"}],"stateMutability":"nonpayable"},{"type":"function","name":"BRIDGE_TRANSITION_FRONTIER_LEN","inputs":[],"outputs":[{"name":"","type":"uint256","internalType":"uint256"}],"stateMutability":"view"},{"type":"function","name":"getChainLedgerHashes","inputs":[],"outputs":[{"name":"","type":"bytes32[16]","internalType":"bytes32[16]"}],"stateMutability":"view"},{"type":"function","name":"getChainStateHashes","inputs":[],"outputs":[{"name":"","type":"bytes32[16]","internalType":"bytes32[16]"}],"stateMutability":"view"},{"type":"function","name":"getTipLedgerHash","inputs":[],"outputs":[{"name":"","type":"bytes32","internalType":"bytes32"}],"stateMutability":"view"},{"type":"function","name":"getTipStateHash","inputs":[],"outputs":[{"name":"","type":"bytes32","internalType":"bytes32"}],"stateMutability":"view"},{"type":"function","name":"isLedgerVerified","inputs":[{"name":"ledgerHash","type":"bytes32","internalType":"bytes32"}],"outputs":[{"name":"","type":"bool","internalType":"bool"}],"stateMutability":"view"},{"type":"function","name":"updateChain","inputs":[{"name":"proofCommitment","type":"bytes32","internalType":"bytes32"},{"name":"provingSystemAuxDataCommitment","type":"bytes32","internalType":"bytes32"},{"name":"proofGeneratorAddr","type":"bytes20","internalType":"bytes20"},{"name":"batchMerkleRoot","type":"bytes32","internalType":"bytes32"},{"name":"merkleProof","type":"bytes","internalType":"bytes"},{"name":"verificationDataBatchIndex","type":"uint256","internalType":"uint256"},{"name":"pubInput","type":"bytes","internalType":"bytes"},{"name":"batcherPaymentService","type":"address","internalType":"address"}],"outputs":[],"stateMutability":"nonpayable"},{"type":"error","name":"MinaNetworkIsWrong","inputs":[]},{"type":"error","name":"MinaProvingSystemIdIsNotValid","inputs":[{"name":"","type":"bytes32","internalType":"bytes32"}]},{"type":"error","name":"NewStateIsNotValid","inputs":[]},{"type":"error","name":"TipStateIsWrong","inputs":[{"name":"pubInputTipStateHash","type":"bytes32","internalType":"bytes32"},{"name":"tipStatehash","type":"bytes32","internalType":"bytes32"}]}],"bytecode":{"object":"0x608060405234801561000f575f5ffd5b50604051610f10380380610f108339818101604052810190610031919061017f565b82602060016101000a81548173ffffffffffffffffffffffffffffffffffffffff021916908373ffffffffffffffffffffffffffffffffffffffff160217905550815f600160106100829190610205565b6010811061009357610092610238565b5b01819055508060205f6101000a81548160ff021916908315150217905550505050610265565b5f5ffd5b5f73ffffffffffffffffffffffffffffffffffffffff82169050919050565b5f6100e6826100bd565b9050919050565b6100f6816100dc565b8114610100575f5ffd5b50565b5f81519050610111816100ed565b92915050565b5f819050919050565b61012981610117565b8114610133575f5ffd5b50565b5f8151905061014481610120565b92915050565b5f8115159050919050565b61015e8161014a565b8114610168575f5ffd5b50565b5f8151905061017981610155565b92915050565b5f5f5f60608486031215610196576101956100b9565b5b5f6101a386828701610103565b93505060206101b486828701610136565b92505060406101c58682870161016b565b9150509250925092565b5f819050919050565b7f4e487b71000000000000000000000000000000000000000000000000000000005f52601160045260245ffd5b5f61020f826101cf565b915061021a836101cf565b9250828203905081811115610232576102316101d8565b5b92915050565b7f4e487b71000000000000000000000000000000000000000000000000000000005f52603260045260245ffd5b610c9e806102725f395ff3fe608060405234801561000f575f5ffd5b506004361061007b575f3560e01c80633886c09b116100595780633886c09b146100d75780633e16b011146100f5578063b818474514610125578063fb299cd8146101435761007b565b806303f93e501461007f5780632bc4f8d91461009d57806337baff0f146100bb575b5f5ffd5b610087610161565b6040516100949190610654565b60405180910390f35b6100a56101ab565b6040516100b29190610654565b60405180910390f35b6100d560048036038101906100d091906108c7565b6101f5565b005b6100df6104c9565b6040516100ec91906109bf565b60405180910390f35b61010f600480360381019061010a91906109d8565b6104f2565b60405161011c9190610a1d565b60405180910390f35b61012d610556565b60405161013a91906109bf565b60405180910390f35b61014b61057e565b6040516101589190610a45565b60405180910390f35b610169610583565b5f6010806020026040519081016040528092919082601080156101a1576020028201915b81548152602001906001019080831161018d575b5050505050905090565b6101b3610583565b601080806020026040519081016040528092919082601080156101eb576020028201915b8154815260200190600101908083116101d7575b5050505050905090565b7fd0591206d9e81e07f4defc5327957173572bcd1bca7838caa7be39b0c12b18735f1b871461025b57866040517fc35f1ecd00000000000000000000000000000000000000000000000000000000815260040161025291906109bf565b60405180910390fd5b5f600160f81b835f8151811061027457610273610a5e565b5b602001015160f81c60f81b7effffffffffffffffffffffffffffffffffffffffffffffffffffffffffffff191614905060205f9054906101000a900460ff161515811515146102ef576040517f042eb0cf00000000000000000000000000000000000000000000000000000000815260040160405180910390fd5b5f602184015190505f600160106103069190610ab8565b6010811061031757610316610a5e565b5b0154811461037f57805f6001601061032f9190610ab8565b601081106103405761033f610a5e565b5b01546040517fbbd80128000000000000000000000000000000000000000000000000000000008152600401610376929190610aeb565b60405180910390fd5b5f848051906020012090505f602060019054906101000a900473ffffffffffffffffffffffffffffffffffffffff1673ffffffffffffffffffffffffffffffffffffffff166306045a918d848e8e8e8e8e8d6040518963ffffffff1660e01b81526004016103f4989796959493929190610b90565b602060405180830381865afa15801561040f573d5f5f3e3d5ffd5b505050506040513d601f19601f820116820180604052508101906104339190610c3d565b90508015610489575f601060418801601060200281015f5b601081101561047f57825185556020830192506001850194508151845560208201915060018401935060018101905061044b565b50505050506104bb565b6040517f114602f000000000000000000000000000000000000000000000000000000000815260040160405180910390fd5b505050505050505050505050565b5f6010600160106104da9190610ab8565b601081106104eb576104ea610a5e565b5b0154905090565b5f5f5f90505b601081101561054c5782601082600160106105139190610ab8565b61051d9190610ab8565b6010811061052e5761052d610a5e565b5b01540361053f576001915050610551565b80806001019150506104f8565b505f90505b919050565b5f5f600160106105669190610ab8565b6010811061057757610576610a5e565b5b0154905090565b601081565b604051806102000160405280601090602082028036833780820191505090505090565b5f60109050919050565b5f81905092915050565b5f819050919050565b5f819050919050565b6105d5816105c3565b82525050565b5f6105e683836105cc565b60208301905092915050565b5f602082019050919050565b610607816105a6565b61061181846105b0565b925061061c826105ba565b805f5b8381101561064c57815161063387826105db565b965061063e836105f2565b92505060018101905061061f565b505050505050565b5f610200820190506106685f8301846105fe565b92915050565b5f604051905090565b5f5ffd5b5f5ffd5b610688816105c3565b8114610692575f5ffd5b50565b5f813590506106a38161067f565b92915050565b5f7fffffffffffffffffffffffffffffffffffffffff00000000000000000000000082169050919050565b6106dd816106a9565b81146106e7575f5ffd5b50565b5f813590506106f8816106d4565b92915050565b5f5ffd5b5f5ffd5b5f601f19601f8301169050919050565b7f4e487b71000000000000000000000000000000000000000000000000000000005f52604160045260245ffd5b61074c82610706565b810181811067ffffffffffffffff8211171561076b5761076a610716565b5b80604052505050565b5f61077d61066e565b90506107898282610743565b919050565b5f67ffffffffffffffff8211156107a8576107a7610716565b5b6107b182610706565b9050602081019050919050565b828183375f83830152505050565b5f6107de6107d98461078e565b610774565b9050828152602081018484840111156107fa576107f9610702565b5b6108058482856107be565b509392505050565b5f82601f830112610821576108206106fe565b5b81356108318482602086016107cc565b91505092915050565b5f819050919050565b61084c8161083a565b8114610856575f5ffd5b50565b5f8135905061086781610843565b92915050565b5f73ffffffffffffffffffffffffffffffffffffffff82169050919050565b5f6108968261086d565b9050919050565b6108a68161088c565b81146108b0575f5ffd5b50565b5f813590506108c18161089d565b92915050565b5f5f5f5f5f5f5f5f610100898b0312156108e4576108e3610677565b5b5f6108f18b828c01610695565b98505060206109028b828c01610695565b97505060406109138b828c016106ea565b96505060606109248b828c01610695565b955050608089013567ffffffffffffffff8111156109455761094461067b565b5b6109518b828c0161080d565b94505060a06109628b828c01610859565b93505060c089013567ffffffffffffffff8111156109835761098261067b565b5b61098f8b828c0161080d565b92505060e06109a08b828c016108b3565b9150509295985092959890939650565b6109b9816105c3565b82525050565b5f6020820190506109d25f8301846109b0565b92915050565b5f602082840312156109ed576109ec610677565b5b5f6109fa84828501610695565b91505092915050565b5f8115159050919050565b610a1781610a03565b82525050565b5f602082019050610a305f830184610a0e565b92915050565b610a3f8161083a565b82525050565b5f602082019050610a585f830184610a36565b92915050565b7f4e487b71000000000000000000000000000000000000000000000000000000005f52603260045260245ffd5b7f4e487b71000000000000000000000000000000000000000000000000000000005f52601160045260245ffd5b5f610ac28261083a565b9150610acd8361083a565b9250828203905081811115610ae557610ae4610a8b565b5b92915050565b5f604082019050610afe5f8301856109b0565b610b0b60208301846109b0565b9392505050565b610b1b816106a9565b82525050565b5f81519050919050565b5f82825260208201905092915050565b8281835e5f83830152505050565b5f610b5382610b21565b610b5d8185610b2b565b9350610b6d818560208601610b3b565b610b7681610706565b840191505092915050565b610b8a8161088c565b82525050565b5f61010082019050610ba45f83018b6109b0565b610bb1602083018a6109b0565b610bbe60408301896109b0565b610bcb6060830188610b12565b610bd860808301876109b0565b81810360a0830152610bea8186610b49565b9050610bf960c0830185610a36565b610c0660e0830184610b81565b9998505050505050505050565b610c1c81610a03565b8114610c26575f5ffd5b50565b5f81519050610c3781610c13565b92915050565b5f60208284031215610c5257610c51610677565b5b5f610c5f84828501610c29565b9150509291505056fea2646970667358221220ccc0cfcc55ea8e6242d695dd183d23a5dd5188bdf38e83caa5e474a1b5fc544f64736f6c634300081c0033","linkReferences":{}},"methodIdentifiers":{"BRIDGE_TRANSITION_FRONTIER_LEN()":"fb299cd8","getChainLedgerHashes()":"2bc4f8d9","getChainStateHashes()":"03f93e50","getTipLedgerHash()":"3886c09b","getTipStateHash()":"b8184745","isLedgerVerified(bytes32)":"3e16b011","updateChain(bytes32,bytes32,bytes20,bytes32,bytes,uint256,bytes,address)":"37baff0f"},"id":39}