{"abi":[{"type":"constructor","inputs":[{"name":"_alignedServiceAddr","type":"address","internalType":"address payable"}],"stateMutability":"nonpayable"},{"type":"function","name":"validateAccount","inputs":[{"name":"args","type":"tuple","internalType":"struct MinaAccountValidationExample.AlignedArgs","components":[{"name":"proofCommitment","type":"bytes32","internalType":"bytes32"},{"name":"provingSystemAuxDataCommitment","type":"bytes32","internalType":"bytes32"},{"name":"proofGeneratorAddr","type":"bytes20","internalType":"bytes20"},{"name":"batchMerkleRoot","type":"bytes32","internalType":"bytes32"},{"name":"merkleProof","type":"bytes","internalType":"bytes"},{"name":"verificationDataBatchIndex","type":"uint256","internalType":"uint256"},{"name":"pubInput","type":"bytes","internalType":"bytes"},{"name":"batcherPaymentService","type":"address","internalType":"address"}]}],"outputs":[{"name":"","type":"bool","internalType":"bool"}],"stateMutability":"view"},{"type":"function","name":"validateAccountAndReturn","inputs":[{"name":"args","type":"tuple","internalType":"struct MinaAccountValidationExample.AlignedArgs","components":[{"name":"proofCommitment","type":"bytes32","internalType":"bytes32"},{"name":"provingSystemAuxDataCommitment","type":"bytes32","internalType":"bytes32"},{"name":"proofGeneratorAddr","type":"bytes20","internalType":"bytes20"},{"name":"batchMerkleRoot","type":"bytes32","internalType":"bytes32"},{"name":"merkleProof","type":"bytes","internalType":"bytes"},{"name":"verificationDataBatchIndex","type":"uint256","internalType":"uint256"},{"name":"pubInput","type":"bytes","internalType":"bytes"},{"name":"batcherPaymentService","type":"address","internalType":"address"}]}],"outputs":[{"name":"","type":"tuple","internalType":"struct MinaAccountValidationExample.Account","components":[{"name":"publicKey","type":"tuple","internalType":"struct MinaAccountValidationExample.CompressedECPoint","components":[{"name":"x","type":"bytes32","internalType":"bytes32"},{"name":"isOdd","type":"bool","internalType":"bool"}]},{"name":"tokenIdKeyHash","type":"bytes32","internalType":"bytes32"},{"name":"tokenSymbol","type":"string","internalType":"string"},{"name":"balance","type":"uint64","internalType":"uint64"},{"name":"nonce","type":"uint32","internalType":"uint32"},{"name":"receiptChainHash","type":"bytes32","internalType":"bytes32"},{"name":"delegate","type":"tuple","internalType":"struct MinaAccountValidationExample.CompressedECPoint","components":[{"name":"x","type":"bytes32","internalType":"bytes32"},{"name":"isOdd","type":"bool","internalType":"bool"}]},{"name":"votingFor","type":"bytes32","internalType":"bytes32"},{"name":"timing","type":"tuple","internalType":"struct MinaAccountValidationExample.Timing","components":[{"name":"initialMinimumBalance","type":"uint64","internalType":"uint64"},{"name":"cliffTime","type":"uint32","internalType":"uint32"},{"name":"cliffAmount","type":"uint64","internalType":"uint64"},{"name":"vestingPeriod","type":"uint32","internalType":"uint32"},{"name":"vestingIncrement","type":"uint64","internalType":"uint64"}]},{"name":"permissions","type":"tuple","internalType":"struct MinaAccountValidationExample.Permissions","components":[{"name":"editState","type":"uint8","internalType":"enum MinaAccountValidationExample.AuthRequired"},{"name":"access","type":"uint8","internalType":"enum MinaAccountValidationExample.AuthRequired"},{"name":"send","type":"uint8","internalType":"enum MinaAccountValidationExample.AuthRequired"},{"name":"rreceive","type":"uint8","internalType":"enum MinaAccountValidationExample.AuthRequired"},{"name":"setDelegate","type":"uint8","internalType":"enum MinaAccountValidationExample.AuthRequired"},{"name":"setPermissions","type":"uint8","internalType":"enum MinaAccountValidationExample.AuthRequired"},{"name":"setVerificationKeyAuth","type":"uint8","internalType":"enum MinaAccountValidationExample.AuthRequired"},{"name":"setVerificationKeyUint","type":"uint32","internalType":"uint32"},{"name":"setZkappUri","type":"uint8","internalType":"enum MinaAccountValidationExample.AuthRequired"},{"name":"editActionState","type":"uint8","internalType":"enum MinaAccountValidationExample.AuthRequired"},{"name":"setTokenSymbol","type":"uint8","internalType":"enum MinaAccountValidationExample.AuthRequired"},{"name":"incrementNonce","type":"uint8","internalType":"enum MinaAccountValidationExample.AuthRequired"},{"name":"setVotingFor","type":"uint8","internalType":"enum MinaAccountValidationExample.AuthRequired"},{"name":"setTiming","type":"uint8","internalType":"enum MinaAccountValidationExample.AuthRequired"}]},{"name":"zkapp","type":"tuple","internalType":"struct MinaAccountValidationExample.ZkappAccount","components":[{"name":"appState","type":"bytes32[8]","internalType":"bytes32[8]"},{"name":"verificationKey","type":"tuple","internalType":"struct MinaAccountValidationExample.VerificationKey","components":[{"name":"maxProofsVerified","type":"uint8","internalType":"enum MinaAccountValidationExample.ProofsVerified"},{"name":"actualWrapDomainSize","type":"uint8","internalType":"enum MinaAccountValidationExample.ProofsVerified"},{"name":"wrapIndex","type":"tuple","internalType":"struct MinaAccountValidationExample.WrapIndex","components":[{"name":"sigmaComm","type":"tuple[7]","internalType":"struct MinaAccountValidationExample.Commitment[7]","components":[{"name":"x","type":"bytes32","internalType":"bytes32"},{"name":"y","type":"bytes32","internalType":"bytes32"}]},{"name":"coefficientsComm","type":"tuple[15]","internalType":"struct MinaAccountValidationExample.Commitment[15]","components":[{"name":"x","type":"bytes32","internalType":"bytes32"},{"name":"y","type":"bytes32","internalType":"bytes32"}]},{"name":"genericComm","type":"tuple","internalType":"struct MinaAccountValidationExample.Commitment","components":[{"name":"x","type":"bytes32","internalType":"bytes32"},{"name":"y","type":"bytes32","internalType":"bytes32"}]},{"name":"psmComm","type":"tuple","internalType":"struct MinaAccountValidationExample.Commitment","components":[{"name":"x","type":"bytes32","internalType":"bytes32"},{"name":"y","type":"bytes32","internalType":"bytes32"}]},{"name":"completeAddComm","type":"tuple","internalType":"struct MinaAccountValidationExample.Commitment","components":[{"name":"x","type":"bytes32","internalType":"bytes32"},{"name":"y","type":"bytes32","internalType":"bytes32"}]},{"name":"mulComm","type":"tuple","internalType":"struct MinaAccountValidationExample.Commitment","components":[{"name":"x","type":"bytes32","internalType":"bytes32"},{"name":"y","type":"bytes32","internalType":"bytes32"}]},{"name":"emulComm","type":"tuple","internalType":"struct MinaAccountValidationExample.Commitment","components":[{"name":"x","type":"bytes32","internalType":"bytes32"},{"name":"y","type":"bytes32","internalType":"bytes32"}]},{"name":"endomulScalarComm","type":"tuple","internalType":"struct MinaAccountValidationExample.Commitment","components":[{"name":"x","type":"bytes32","internalType":"bytes32"},{"name":"y","type":"bytes32","internalType":"bytes32"}]}]}]},{"name":"zkappVersion","type":"uint32","internalType":"uint32"},{"name":"actionState","type":"bytes32[5]","internalType":"bytes32[5]"},{"name":"lastActionSlot","type":"uint32","internalType":"uint32"},{"name":"provedState","type":"bool","internalType":"bool"},{"name":"zkappUri","type":"bytes","internalType":"bytes"}]}]}],"stateMutability":"view"},{"type":"error","name":"MinaAccountProvingSystemIdIsNotValid","inputs":[{"name":"","type":"bytes32","internalType":"bytes32"}]}],"bytecode":{"object":"0x608060405234801561000f575f5ffd5b5060405161214a38038061214a833981810160405281019061003191906100d4565b805f5f6101000a81548173ffffffffffffffffffffffffffffffffffffffff021916908373ffffffffffffffffffffffffffffffffffffffff160217905550506100ff565b5f5ffd5b5f73ffffffffffffffffffffffffffffffffffffffff82169050919050565b5f6100a38261007a565b9050919050565b6100b381610099565b81146100bd575f5ffd5b50565b5f815190506100ce816100aa565b92915050565b5f602082840312156100e9576100e8610076565b5b5f6100f6848285016100c0565b91505092915050565b61203e8061010c5f395ff3fe608060405234801561000f575f5ffd5b5060043610610034575f3560e01c80639029ad1514610038578063c647871314610068575b5f5ffd5b610052600480360381019061004d9190610838565b610098565b60405161005f9190610899565b60405180910390f35b610082600480360381019061007d9190610838565b610221565b60405161008f9190611118565b60405180910390f35b5f7fee2a4bc7db81da2b7164e56b3649b1e2a09c58c455b15dabddd9146c7582cebc5f1b8260200135146101075781602001356040517f182f5efc0000000000000000000000000000000000000000000000000000000081526004016100fe9190611147565b60405180910390fd5b5f828060c00190610118919061116c565b60405161012692919061120a565b604051809103902090505f5f9054906101000a900473ffffffffffffffffffffffffffffffffffffffff1673ffffffffffffffffffffffffffffffffffffffff166306045a91845f01358386602001358760400160208101906101899190611277565b886060013589806080019061019e919061116c565b8b60a001358c60e00160208101906101b691906112fc565b6040518a63ffffffff1660e01b81526004016101da99989796959493929190611399565b602060405180830381865afa1580156101f5573d5f5f3e3d5ffd5b505050506040513d601f19601f820116820180604052508101906102199190611448565b915050919050565b6102296103f2565b7fee2a4bc7db81da2b7164e56b3649b1e2a09c58c455b15dabddd9146c7582cebc5f1b8260200135146102975781602001356040517f182f5efc00000000000000000000000000000000000000000000000000000000815260040161028e9190611147565b60405180910390fd5b5f828060c001906102a8919061116c565b6040516102b692919061120a565b604051809103902090505f5f5f9054906101000a900473ffffffffffffffffffffffffffffffffffffffff1673ffffffffffffffffffffffffffffffffffffffff166306045a91855f013584876020013588604001602081019061031a9190611277565b89606001358a806080019061032f919061116c565b8c60a001358d60e001602081019061034791906112fc565b6040518a63ffffffff1660e01b815260040161036b99989796959493929190611399565b602060405180830381865afa158015610386573d5f5f3e3d5ffd5b505050506040513d601f19601f820116820180604052508101906103aa9190611448565b905080156103e957838060c001906103c2919061116c565b60289080926103d39392919061147b565b8101906103e09190611fc1565b925050506103ed565b5f5ffd5b919050565b604051806101600160405280610406610475565b81526020015f8152602001606081526020015f67ffffffffffffffff1681526020015f63ffffffff1681526020015f8152602001610442610475565b81526020015f815260200161045561048f565b81526020016104626104e3565b815260200161046f610634565b81525090565b60405180604001604052805f81526020015f151581525090565b6040518060a001604052805f67ffffffffffffffff1681526020015f63ffffffff1681526020015f67ffffffffffffffff1681526020015f63ffffffff1681526020015f67ffffffffffffffff1681525090565b604051806101c001604052805f600481111561050257610501610a1c565b5b81526020015f600481111561051a57610519610a1c565b5b81526020015f600481111561053257610531610a1c565b5b81526020015f600481111561054a57610549610a1c565b5b81526020015f600481111561056257610561610a1c565b5b81526020015f600481111561057a57610579610a1c565b5b81526020015f600481111561059257610591610a1c565b5b81526020015f63ffffffff1681526020015f60048111156105b6576105b5610a1c565b5b81526020015f60048111156105ce576105cd610a1c565b5b81526020015f60048111156105e6576105e5610a1c565b5b81526020015f60048111156105fe576105fd610a1c565b5b81526020015f600481111561061657610615610a1c565b5b81526020015f600481111561062e5761062d610a1c565b5b81525090565b6040518060e0016040528061064761068e565b81526020016106546106b1565b81526020015f63ffffffff16815260200161066d6106fa565b81526020015f63ffffffff1681526020015f15158152602001606081525090565b604051806101000160405280600890602082028036833780820191505090505090565b60405180606001604052805f60028111156106cf576106ce610a1c565b5b81526020015f60028111156106e7576106e6610a1c565b5b81526020016106f461071c565b81525090565b6040518060a00160405280600590602082028036833780820191505090505090565b604051806101000160405280610730610791565b815260200161073d6107be565b815260200161074a6107ec565b81526020016107576107ec565b81526020016107646107ec565b81526020016107716107ec565b815260200161077e6107ec565b815260200161078b6107ec565b81525090565b6040518060e001604052806007905b6107a86107ec565b8152602001906001900390816107a05790505090565b604051806101e00160405280600f905b6107d66107ec565b8152602001906001900390816107ce5790505090565b60405180604001604052805f81526020015f81525090565b5f604051905090565b5f5ffd5b5f5ffd5b5f5ffd5b5f610100828403121561082f5761082e610815565b5b81905092915050565b5f6020828403121561084d5761084c61080d565b5b5f82013567ffffffffffffffff81111561086a57610869610811565b5b61087684828501610819565b91505092915050565b5f8115159050919050565b6108938161087f565b82525050565b5f6020820190506108ac5f83018461088a565b92915050565b5f819050919050565b6108c4816108b2565b82525050565b6108d38161087f565b82525050565b604082015f8201516108ed5f8501826108bb565b50602082015161090060208501826108ca565b50505050565b5f81519050919050565b5f82825260208201905092915050565b8281835e5f83830152505050565b5f601f19601f8301169050919050565b5f61094882610906565b6109528185610910565b9350610962818560208601610920565b61096b8161092e565b840191505092915050565b5f67ffffffffffffffff82169050919050565b61099281610976565b82525050565b5f63ffffffff82169050919050565b6109b081610998565b82525050565b60a082015f8201516109ca5f850182610989565b5060208201516109dd60208501826109a7565b5060408201516109f06040850182610989565b506060820151610a0360608501826109a7565b506080820151610a166080850182610989565b50505050565b7f4e487b71000000000000000000000000000000000000000000000000000000005f52602160045260245ffd5b60058110610a5a57610a59610a1c565b5b50565b5f819050610a6a82610a49565b919050565b5f610a7982610a5d565b9050919050565b610a8981610a6f565b82525050565b6101c082015f820151610aa45f850182610a80565b506020820151610ab76020850182610a80565b506040820151610aca6040850182610a80565b506060820151610add6060850182610a80565b506080820151610af06080850182610a80565b5060a0820151610b0360a0850182610a80565b5060c0820151610b1660c0850182610a80565b5060e0820151610b2960e08501826109a7565b50610100820151610b3e610100850182610a80565b50610120820151610b53610120850182610a80565b50610140820151610b68610140850182610a80565b50610160820151610b7d610160850182610a80565b50610180820151610b92610180850182610a80565b506101a0820151610ba76101a0850182610a80565b50505050565b5f60089050919050565b5f81905092915050565b5f819050919050565b5f610bd583836108bb565b60208301905092915050565b5f602082019050919050565b610bf681610bad565b610c008184610bb7565b9250610c0b82610bc1565b805f5b83811015610c3b578151610c228782610bca565b9650610c2d83610be1565b925050600181019050610c0e565b505050505050565b60038110610c5457610c53610a1c565b5b50565b5f819050610c6482610c43565b919050565b5f610c7382610c57565b9050919050565b610c8381610c69565b82525050565b5f60079050919050565b5f81905092915050565b5f819050919050565b604082015f820151610cba5f8501826108bb565b506020820151610ccd60208501826108bb565b50505050565b5f610cde8383610ca6565b60408301905092915050565b5f602082019050919050565b610cff81610c89565b610d098184610c93565b9250610d1482610c9d565b805f5b83811015610d44578151610d2b8782610cd3565b9650610d3683610cea565b925050600181019050610d17565b505050505050565b5f600f9050919050565b5f81905092915050565b5f819050919050565b5f602082019050919050565b610d7e81610d4c565b610d888184610d56565b9250610d9382610d60565b805f5b83811015610dc3578151610daa8782610cd3565b9650610db583610d69565b925050600181019050610d96565b505050505050565b61070082015f820151610de05f850182610cf6565b506020820151610df46101c0850182610d75565b506040820151610e08610580850182610ca6565b506060820151610e1c6105c0850182610ca6565b506080820151610e30610600850182610ca6565b5060a0820151610e44610640850182610ca6565b5060c0820151610e58610680850182610ca6565b5060e0820151610e6c6106c0850182610ca6565b50505050565b61074082015f820151610e875f850182610c7a565b506020820151610e9a6020850182610c7a565b506040820151610ead6040850182610dcb565b50505050565b5f60059050919050565b5f81905092915050565b5f819050919050565b5f602082019050919050565b610ee581610eb3565b610eef8184610ebd565b9250610efa82610ec7565b805f5b83811015610f2a578151610f118782610bca565b9650610f1c83610ed0565b925050600181019050610efd565b505050505050565b5f81519050919050565b5f82825260208201905092915050565b5f610f5682610f32565b610f608185610f3c565b9350610f70818560208601610920565b610f798161092e565b840191505092915050565b5f61096083015f830151610f9a5f860182610bed565b506020830151610fae610100860182610e72565b506040830151610fc26108408601826109a7565b506060830151610fd6610860860182610edc565b506080830151610fea6109008601826109a7565b5060a0830151610ffe6109208601826108ca565b5060c08301518482036109408601526110178282610f4c565b9150508091505092915050565b5f6103c083015f83015161103a5f8601826108d9565b50602083015161104d60408601826108bb565b5060408301518482036060860152611065828261093e565b915050606083015161107a6080860182610989565b50608083015161108d60a08601826109a7565b5060a08301516110a060c08601826108bb565b5060c08301516110b360e08601826108d9565b5060e08301516110c76101208601826108bb565b506101008301516110dc6101408601826109b6565b506101208301516110f16101e0860182610a8f565b506101408301518482036103a086015261110b8282610f84565b9150508091505092915050565b5f6020820190508181035f8301526111308184611024565b905092915050565b611141816108b2565b82525050565b5f60208201905061115a5f830184611138565b92915050565b5f5ffd5b5f5ffd5b5f5ffd5b5f5f8335600160200384360303811261118857611187611160565b5b80840192508235915067ffffffffffffffff8211156111aa576111a9611164565b5b6020830192506001820236038313156111c6576111c5611168565b5b509250929050565b5f81905092915050565b828183375f83830152505050565b5f6111f183856111ce565b93506111fe8385846111d8565b82840190509392505050565b5f6112168284866111e6565b91508190509392505050565b5f7fffffffffffffffffffffffffffffffffffffffff00000000000000000000000082169050919050565b61125681611222565b8114611260575f5ffd5b50565b5f813590506112718161124d565b92915050565b5f6020828403121561128c5761128b61080d565b5b5f61129984828501611263565b91505092915050565b5f73ffffffffffffffffffffffffffffffffffffffff82169050919050565b5f6112cb826112a2565b9050919050565b6112db816112c1565b81146112e5575f5ffd5b50565b5f813590506112f6816112d2565b92915050565b5f602082840312156113115761131061080d565b5b5f61131e848285016112e8565b91505092915050565b61133081611222565b82525050565b5f82825260208201905092915050565b5f6113518385611336565b935061135e8385846111d8565b6113678361092e565b840190509392505050565b5f819050919050565b61138481611372565b82525050565b611393816112c1565b82525050565b5f610100820190506113ad5f83018c611138565b6113ba602083018b611138565b6113c7604083018a611138565b6113d46060830189611327565b6113e16080830188611138565b81810360a08301526113f4818688611346565b905061140360c083018561137b565b61141060e083018461138a565b9a9950505050505050505050565b6114278161087f565b8114611431575f5ffd5b50565b5f815190506114428161141e565b92915050565b5f6020828403121561145d5761145c61080d565b5b5f61146a84828501611434565b91505092915050565b5f5ffd5b5f5ffd5b5f5f8585111561148e5761148d611473565b5b8386111561149f5761149e611477565b5b6001850283019150848603905094509492505050565b5f5ffd5b7f4e487b71000000000000000000000000000000000000000000000000000000005f52604160045260245ffd5b6114ef8261092e565b810181811067ffffffffffffffff8211171561150e5761150d6114b9565b5b80604052505050565b5f611520610804565b905061152c82826114e6565b919050565b5f5ffd5b61153e816108b2565b8114611548575f5ffd5b50565b5f8135905061155981611535565b92915050565b5f8135905061156d8161141e565b92915050565b5f60408284031215611588576115876114b5565b5b6115926040611517565b90505f6115a18482850161154b565b5f8301525060206115b48482850161155f565b60208301525092915050565b5f5ffd5b5f5ffd5b5f67ffffffffffffffff8211156115e2576115e16114b9565b5b6115eb8261092e565b9050602081019050919050565b5f61160a611605846115c8565b611517565b905082815260208101848484011115611626576116256115c4565b5b6116318482856111d8565b509392505050565b5f82601f83011261164d5761164c6115c0565b5b813561165d8482602086016115f8565b91505092915050565b61166f81610976565b8114611679575f5ffd5b50565b5f8135905061168a81611666565b92915050565b61169981610998565b81146116a3575f5ffd5b50565b5f813590506116b481611690565b92915050565b5f60a082840312156116cf576116ce6114b5565b5b6116d960a0611517565b90505f6116e88482850161167c565b5f8301525060206116fb848285016116a6565b602083015250604061170f8482850161167c565b6040830152506060611723848285016116a6565b60608301525060806117378482850161167c565b60808301525092915050565b6005811061174f575f5ffd5b50565b5f8135905061176081611743565b92915050565b5f6101c0828403121561177c5761177b6114b5565b5b6117876101c0611517565b90505f61179684828501611752565b5f8301525060206117a984828501611752565b60208301525060406117bd84828501611752565b60408301525060606117d184828501611752565b60608301525060806117e584828501611752565b60808301525060a06117f984828501611752565b60a08301525060c061180d84828501611752565b60c08301525060e0611821848285016116a6565b60e08301525061010061183684828501611752565b6101008301525061012061184c84828501611752565b6101208301525061014061186284828501611752565b6101408301525061016061187884828501611752565b6101608301525061018061188e84828501611752565b610180830152506101a06118a484828501611752565b6101a08301525092915050565b5f67ffffffffffffffff8211156118cb576118ca6114b9565b5b602082029050919050565b5f5ffd5b5f6118ec6118e7846118b1565b611517565b90508060208402830185811115611906576119056118d6565b5b835b8181101561192f578061191b888261154b565b845260208401935050602081019050611908565b5050509392505050565b5f82601f83011261194d5761194c6115c0565b5b600861195a8482856118da565b91505092915050565b6003811061196f575f5ffd5b50565b5f8135905061198081611963565b92915050565b5f67ffffffffffffffff8211156119a05761199f6114b9565b5b602082029050919050565b5f604082840312156119c0576119bf6114b5565b5b6119ca6040611517565b90505f6119d98482850161154b565b5f8301525060206119ec8482850161154b565b60208301525092915050565b5f611a0a611a0584611986565b611517565b90508060408402830185811115611a2457611a236118d6565b5b835b81811015611a4d5780611a3988826119ab565b845260208401935050604081019050611a26565b5050509392505050565b5f82601f830112611a6b57611a6a6115c0565b5b6007611a788482856119f8565b91505092915050565b5f67ffffffffffffffff821115611a9b57611a9a6114b9565b5b602082029050919050565b5f611ab8611ab384611a81565b611517565b90508060408402830185811115611ad257611ad16118d6565b5b835b81811015611afb5780611ae788826119ab565b845260208401935050604081019050611ad4565b5050509392505050565b5f82601f830112611b1957611b186115c0565b5b600f611b26848285611aa6565b91505092915050565b5f6107008284031215611b4557611b446114b5565b5b611b50610100611517565b90505f611b5f84828501611a57565b5f830152506101c0611b7384828501611b05565b602083015250610580611b88848285016119ab565b6040830152506105c0611b9d848285016119ab565b606083015250610600611bb2848285016119ab565b608083015250610640611bc7848285016119ab565b60a083015250610680611bdc848285016119ab565b60c0830152506106c0611bf1848285016119ab565b60e08301525092915050565b5f6107408284031215611c1357611c126114b5565b5b611c1d6060611517565b90505f611c2c84828501611972565b5f830152506020611c3f84828501611972565b6020830152506040611c5384828501611b2f565b60408301525092915050565b5f67ffffffffffffffff821115611c7957611c786114b9565b5b602082029050919050565b5f611c96611c9184611c5f565b611517565b90508060208402830185811115611cb057611caf6118d6565b5b835b81811015611cd95780611cc5888261154b565b845260208401935050602081019050611cb2565b5050509392505050565b5f82601f830112611cf757611cf66115c0565b5b6005611d04848285611c84565b91505092915050565b5f67ffffffffffffffff821115611d2757611d266114b9565b5b611d308261092e565b9050602081019050919050565b5f611d4f611d4a84611d0d565b611517565b905082815260208101848484011115611d6b57611d6a6115c4565b5b611d768482856111d8565b509392505050565b5f82601f830112611d9257611d916115c0565b5b8135611da2848260208601611d3d565b91505092915050565b5f6109608284031215611dc157611dc06114b5565b5b611dcb60e0611517565b90505f611dda84828501611939565b5f83015250610100611dee84828501611bfd565b602083015250610840611e03848285016116a6565b604083015250610860611e1884828501611ce3565b606083015250610900611e2d848285016116a6565b608083015250610920611e428482850161155f565b60a08301525061094082013567ffffffffffffffff811115611e6757611e66611531565b5b611e7384828501611d7e565b60c08301525092915050565b5f6103c08284031215611e9557611e946114b5565b5b611ea0610160611517565b90505f611eaf84828501611573565b5f830152506040611ec28482850161154b565b602083015250606082013567ffffffffffffffff811115611ee657611ee5611531565b5b611ef284828501611639565b6040830152506080611f068482850161167c565b60608301525060a0611f1a848285016116a6565b60808301525060c0611f2e8482850161154b565b60a08301525060e0611f4284828501611573565b60c083015250610120611f578482850161154b565b60e083015250610140611f6c848285016116ba565b610100830152506101e0611f8284828501611766565b610120830152506103a082013567ffffffffffffffff811115611fa857611fa7611531565b5b611fb484828501611dab565b6101408301525092915050565b5f60208284031215611fd657611fd561080d565b5b5f82013567ffffffffffffffff811115611ff357611ff2610811565b5b611fff84828501611e7f565b9150509291505056fea2646970667358221220c3d4b57cad12413f000b4d57dbee680929e8a94338fdd5794252be60d659d82664736f6c634300081c0033","linkReferences":{}},"methodIdentifiers":{"validateAccount((bytes32,bytes32,bytes20,bytes32,bytes,uint256,bytes,address))":"9029ad15","validateAccountAndReturn((bytes32,bytes32,bytes20,bytes32,bytes,uint256,bytes,address))":"c6478713"},"id":39}