{"abi":[{"type":"constructor","inputs":[{"name":"_stateSettlementAddr","type":"address","internalType":"address"},{"name":"_accountValidationAddr","type":"address","internalType":"address"}],"stateMutability":"nonpayable"},{"type":"function","name":"DECIMALS","inputs":[],"outputs":[{"name":"","type":"uint8","internalType":"uint8"}],"stateMutability":"view"},{"type":"function","name":"MAX_MAGNITUDE","inputs":[],"outputs":[{"name":"","type":"uint64","internalType":"uint64"}],"stateMutability":"view"},{"type":"function","name":"WEI_PER_BRIDGE_UNIT","inputs":[],"outputs":[{"name":"","type":"uint256","internalType":"uint256"}],"stateMutability":"view"},{"type":"function","name":"bridgeOperator","inputs":[],"outputs":[{"name":"","type":"address","internalType":"address"}],"stateMutability":"view"},{"type":"function","name":"burnSoFarSet","inputs":[{"name":"","type":"uint256","internalType":"uint256"}],"outputs":[{"name":"","type":"uint256","internalType":"uint256"}],"stateMutability":"view"},{"type":"function","name":"codeChallengeToEthAddress","inputs":[{"name":"","type":"uint256","internalType":"uint256"}],"outputs":[{"name":"","type":"address","internalType":"address"}],"stateMutability":"view"},{"type":"function","name":"lockTokens","inputs":[{"name":"attestationHash","type":"uint256","internalType":"uint256"}],"outputs":[],"stateMutability":"payable"},{"type":"function","name":"lockedTokens","inputs":[{"name":"","type":"address","internalType":"address"},{"name":"","type":"uint256","internalType":"uint256"}],"outputs":[{"name":"","type":"uint256","internalType":"uint256"}],"stateMutability":"view"},{"type":"function","name":"totalLocked","inputs":[],"outputs":[{"name":"","type":"uint256","internalType":"uint256"}],"stateMutability":"view"},{"type":"function","name":"unlockTokens","inputs":[{"name":"toUnlockAmount","type":"uint256","internalType":"uint256"},{"name":"proofCommitment","type":"bytes32","internalType":"bytes32"},{"name":"provingSystemAuxDataCommitment","type":"bytes32","internalType":"bytes32"},{"name":"proofGeneratorAddr","type":"bytes20","internalType":"bytes20"},{"name":"batchMerkleRoot","type":"bytes32","internalType":"bytes32"},{"name":"merkleProof","type":"bytes","internalType":"bytes"},{"name":"verificationDataBatchIndex","type":"uint256","internalType":"uint256"},{"name":"pubInput","type":"bytes","internalType":"bytes"},{"name":"batcherPaymentService","type":"address","internalType":"address"}],"outputs":[],"stateMutability":"nonpayable"},{"type":"function","name":"withdraw","inputs":[],"outputs":[],"stateMutability":"nonpayable"},{"type":"event","name":"TokensLocked","inputs":[{"name":"user","type":"address","indexed":true,"internalType":"address"},{"name":"attestationHash","type":"uint256","indexed":false,"internalType":"uint256"},{"name":"amount","type":"uint256","indexed":false,"internalType":"uint256"},{"name":"when","type":"uint256","indexed":false,"internalType":"uint256"}],"anonymous":false},{"type":"event","name":"TokensUnlocked","inputs":[{"name":"pubKeyTokenIdHash","type":"uint256","indexed":true,"internalType":"uint256"},{"name":"amount","type":"uint256","indexed":false,"internalType":"uint256"},{"name":"receiver","type":"address","indexed":false,"internalType":"address"},{"name":"when","type":"uint256","indexed":false,"internalType":"uint256"}],"anonymous":false}],"bytecode":{"object":"0x608034609057601f61138038819003918201601f19168301916001600160401b038311848410176094578084926040948552833981010312609057604b602060458360a8565b920160a8565b5f8054336001600160a01b031991821617909155600480546001600160a01b03948516908316179055600580549290931691161790556040516112c490816100bc8239f35b5f80fd5b634e487b7160e01b5f52604160045260245ffd5b51906001600160a01b038216820360905756fe6080806040526004361015610012575f80fd5b5f905f3560e01c9081632e0f2625146110a6575080633471f65e1461107c5780633ccfd60b14610fae57806353719b6e14610f6657806354506bb414610f345780635689141214610f17578063590665c214610ef05780636e27d88914610ca2578063c58f219c14610c80578063ca430143146100bb5763e7ece69014610097575f80fd5b346100b857806003193601126100b85750602064e8d4a51000604051908152f35b80fd5b50346100b8576101203660031901126100b857600435606435906bffffffffffffffffffffffff198216809203610c7c5760a4356001600160401b038111610c785761010b90369060040161115c565b60e4356001600160401b038111610b9d5736602382011215610b9d5780600401356001600160401b038111610b995760248201818301936024850196368811610ac157610104356001600160a01b0381169290839003610b135784602011610b13576024602060018060a01b036004541660405192838092633e16b01160e01b8252893560048301525afa908115610c6d578b91610c4e575b5015610c18576020926040516101b9816110bf565b60243581528481019160443583526040820194855261028360608301976084358952608084019586526101f760a085019160c43583528b3691611117565b60c0850190815260e0850193845261026a60018060a01b0360055416976040519b8c9a8b998a99639029ad1560e01b8b528e60048c01525160248b01525160448a01526bffffffffffffffffffffffff1990511660648901525160848801525161010060a48801526101248701906111b3565b915160c4860152518482036023190160e48601526111b3565b90516001600160a01b031661010483015203915afa908115610c0d578791610bde575b5015610ba157602811610b9d5760206027198284030112610b9d57604c810135906001600160401b038211610b9957016024604b198284030101916103c08312610b99576040519161016083018381106001600160401b03821117610b855760405261031586604c83016111e4565b83526020830193608c820135855260ac8201356001600160401b038111610ac157604c9083010187601f82011215610ac1578781602061035793359101611117565b604085015261036860cc8301611213565b606085015261037960ec8301611227565b608085015261010c82013560a08501526103978761012c84016111e4565b60c085015261016c82013560e085015260a061013f19820112610aed5760405160a081018181106001600160401b03821117610b71576040526101c091906103e261018c8501611213565b81526103f16101ac8501611227565b60208201526104036101cc8501611213565b60408201526104156101ec8501611227565b606082015261042761020c8501611213565b60808201526101008601526101df190112610b6d576040516101c081018181106001600160401b03821117610b595760405261022c8201356005811015610ac157815261024c8201356005811015610ac157602082015261026c8201356005811015610ac157604082015261028c8201356005811015610ac15760608201526102ac8201356005811015610ac15760808201526102cc8201356005811015610ac15760a08201526102ec8201356005811015610ac15760c08201526104ef61030c8301611227565b60e082015261032c8201356005811015610ac15761010082015261034c8201356005811015610ac15761012082015261036c8201356005811015610ac15761014082015261038c8201356005811015610ac1576101608201526103ac8201356005811015610ac1576101808201526103cc8201356005811015610ac1576101a08201526101208401526103ec810135906001600160401b038211610aed57602491604c91010180920301906109608212610b6d576040519560e087018781106001600160401b03821117610b595760405280601f83011215610aed57604051926105db610100856110f6565b83610100840194838611610ad55784905b868210610b49575050885261074060ff19820112610ac15760405193606085018581106001600160401b03821117610b3557604052356003811015610b13578452610120830135906003821015610b135761070091602086015261013f190112610aed5760405161065c816110bf565b8161015f84011215610ac15760405161067660e0826110f6565b80610300850191848311610b31576101408601905b838210610b1757505082528261031f85011215610b13576040516106b16101e0826110f6565b806106c0860192858411610b0f578592915b848210610af157505060208401526106da91611238565b60408201526106ed826107008501611238565b6060820152610700826107408501611238565b6080820152610713826107808501611238565b60a0820152610726826107c08501611238565b60c0820152610739826108008501611238565b60e08201526040840152602087019283526107576108408301611227565b60408801528061087f83011215610aed5760405161077660a0826110f6565b80610900840191838311610ad5576108608501905b838210610ac557505060608901526107a290611227565b60808801526107b461092083016111d7565b60a08801526109408201356001600160401b038111610ac1576107d7920161115c565b60c086015261014082019485525160408051916107f8602084018251611260565b610809602082015183850190611260565b0151805187606084015b60078210610aa05750505060208101518761022084015b600f8210610a7f575050506108cb91602060e08382604061076096015180516105e0870152015161060085015282606082015180516106208701520151610640850152826080820151805161066087015201516106808501528260a082015180516106a087015201516106c08501528260c082015180516106e0870152015161070085015201518051610720840152015161074082015261074081526110f6565b51905160405190602080830193805185520151151560408301526060820152606081526108f96080826110f6565b519020918284526006602052604084205461091a8160408451510151611281565b8015610a235783116109c057826109309161117a565b83855260066020526040852055606060018060a01b0391515101511661095882600254611281565b6002558382828282156109b7575b839283928392f1156109ac577fb9ca611be7435f3c6f1241086b057aa49a657c2888526894a9fc370e482b0afb916060916040519182526020820152426040820152a280f35b6040513d85823e3d90fd5b506108fc610966565b60405162461bcd60e51b815260206004820152603560248201527f546f20756e6c6f636b20616d6f756e742069732067726561746572207468616e6044820152742074686520616d6f756e7420746f20756e6c6f636b60581b6064820152608490fd5b60405162461bcd60e51b815260206004820152602e60248201527f4275726e20736f206661722069732067726561746572207468616e207468652060448201526d30b6b7bab73a103a3790313ab93760911b6064820152608490fd5b8251805182526020908101518282015260019160400193019101909161082a565b82518051825260209081015182820152600191604001930191019091610813565b8880fd5b813581526020918201910161078b565b8a80fd5b634e487b7160e01b5f52604160045260245ffd5b8780fd5b602090610b02839495604094611238565b81520191018592916106c3565b8c80fd5b8980fd5b6020604091610b268885611238565b81520191019061068b565b8b80fd5b634e487b7160e01b8b52604160045260248bfd5b81358152602091820191016105ec565b634e487b7160e01b89526041600452602489fd5b8680fd5b634e487b7160e01b8a52604160045260248afd5b634e487b7160e01b88526041600452602488fd5b8580fd5b8480fd5b60405162461bcd60e51b8152602060048201526015602482015274125b9d985b1a5908169ad85c1c081058d8dbdd5b9d605a1b6044820152606490fd5b610c00915060203d602011610c06575b610bf881836110f6565b81019061119b565b5f6102a6565b503d610bee565b6040513d89823e3d90fd5b60405162461bcd60e51b815260206004820152600e60248201526d24b73b30b634b2102632b233b2b960911b6044820152606490fd5b610c67915060203d602011610c0657610bf881836110f6565b5f6101a4565b6040513d8d823e3d90fd5b8380fd5b8280fd5b50346100b857806003193601126100b85760206040516001600160401b038152f35b6020366003190112610eec576004353415610ea85764e8d4a51000803404903406610e52576001600160401b03610cdb8260025461117a565b11610e01575f828152600360205260409020546001600160a01b031680610d8757505f82815260036020526040902080546001600160a01b03191633179055610d4a905b335f52600160205260405f20835f5260205260405f20610d4034825461117a565b905560025461117a565b6002556040519081523460208201524260408201527f90e20a62e0f2a608d33bd96a4e15cb853006a15caf4455f373b7b55de520b68c60603392a2005b3303610d9657610d4a90610d1f565b60405162461bcd60e51b815260206004820152603e60248201527f54686973204d696e61206163636f756e7420697320616c7265616479206c696e60448201527f6b656420746f206120646966666572656e7420455448206164647265737300006064820152608490fd5b60405162461bcd60e51b8152602060048201526024808201527f546f74616c206c6f636b65642065786365656473206d6178696d756d20616c6c6044820152631bddd95960e21b6064820152608490fd5b60405162461bcd60e51b815260206004820152602860248201527f4d757374206265206d756c7469706c65206f6620736d616c6c657374206272696044820152671919d9481d5b9a5d60c21b6064820152608490fd5b606460405162461bcd60e51b815260206004820152602060248201527f596f75206d7573742073656e6420736f6d6520457468657220746f206c6f636b6044820152fd5b5f80fd5b34610eec575f366003190112610eec575f546040516001600160a01b039091168152602090f35b34610eec575f366003190112610eec576020600254604051908152f35b34610eec576020366003190112610eec576004355f526003602052602060018060a01b0360405f205416604051908152f35b34610eec576040366003190112610eec576004356001600160a01b03811690819003610eec575f52600160205260405f206024355f52602052602060405f2054604051908152f35b34610eec575f366003190112610eec575f546001600160a01b03163381900361102d5747908115610ff3575f808093819382f115610fe857005b6040513d5f823e3d90fd5b60405162461bcd60e51b81526020600482015260126024820152714e6f2045544820746f20776974686472617760701b6044820152606490fd5b60405162461bcd60e51b815260206004820152602160248201527f4f6e6c7920627269646765206f70657261746f722063616e20776974686472616044820152607760f81b6064820152608490fd5b34610eec576020366003190112610eec576004355f526006602052602060405f2054604051908152f35b34610eec575f366003190112610eec5780600660209252f35b61010081019081106001600160401b03821117610ad957604052565b604081019081106001600160401b03821117610ad957604052565b90601f801991011681019081106001600160401b03821117610ad957604052565b9291926001600160401b038211610ad95760405191611140601f8201601f1916602001846110f6565b829481845281830111610eec578281602093845f960137010152565b9080601f83011215610eec5781602061117793359101611117565b90565b9190820180921161118757565b634e487b7160e01b5f52601160045260245ffd5b90816020910312610eec57518015158103610eec5790565b805180835260209291819084018484015e5f828201840152601f01601f1916010190565b35908115158203610eec57565b9190826040910312610eec576040516111fc816110db565b602061120e81839580358552016111d7565b910152565b35906001600160401b0382168203610eec57565b359063ffffffff82168203610eec57565b9190826040910312610eec57604051611250816110db565b6020808294803584520135910152565b90600382101561126d5752565b634e487b7160e01b5f52602160045260245ffd5b919082039182116111875756fea26469706673582212207fed2a6cbe9e597ff237c55a562fedd605c273fcc03d5b6c87f6c18c5398e01d64736f6c634300081e0033","linkReferences":{}},"methodIdentifiers":{"DECIMALS()":"2e0f2625","MAX_MAGNITUDE()":"c58f219c","WEI_PER_BRIDGE_UNIT()":"e7ece690","bridgeOperator()":"590665c2","burnSoFarSet(uint256)":"3471f65e","codeChallengeToEthAddress(uint256)":"54506bb4","lockTokens(uint256)":"6e27d889","lockedTokens(address,uint256)":"53719b6e","totalLocked()":"56891412","unlockTokens(uint256,bytes32,bytes32,bytes20,bytes32,bytes,uint256,bytes,address)":"ca430143","withdraw()":"3ccfd60b"},"id":41}