{"abi":[{"type":"constructor","inputs":[{"name":"_stateSettlementAddr","type":"address","internalType":"address"},{"name":"_accountValidationAddr","type":"address","internalType":"address"}],"stateMutability":"nonpayable"},{"type":"function","name":"getLatestSolutionTimestamp","inputs":[],"outputs":[{"name":"","type":"uint256","internalType":"uint256"}],"stateMutability":"view"},{"type":"function","name":"validateSolution","inputs":[{"name":"proofCommitment","type":"bytes32","internalType":"bytes32"},{"name":"provingSystemAuxDataCommitment","type":"bytes32","internalType":"bytes32"},{"name":"proofGeneratorAddr","type":"bytes20","internalType":"bytes20"},{"name":"batchMerkleRoot","type":"bytes32","internalType":"bytes32"},{"name":"merkleProof","type":"bytes","internalType":"bytes"},{"name":"verificationDataBatchIndex","type":"uint256","internalType":"uint256"},{"name":"pubInput","type":"bytes","internalType":"bytes"},{"name":"batcherPaymentService","type":"address","internalType":"address"}],"outputs":[],"stateMutability":"nonpayable"},{"type":"error","name":"IncorrectZkappAccount","inputs":[{"name":"verificationKeyHash","type":"bytes32","internalType":"bytes32"}]},{"type":"error","name":"InvalidLedger","inputs":[{"name":"ledgerHash","type":"bytes32","internalType":"bytes32"}]},{"type":"error","name":"InvalidZkappAccount","inputs":[]},{"type":"error","name":"UnsolvedSudoku","inputs":[]}],"bytecode":{"object":"0x60806040525f600255348015610013575f5ffd5b5060405161194d38038061194d83398181016040528101906100359190610119565b815f5f6101000a81548173ffffffffffffffffffffffffffffffffffffffff021916908373ffffffffffffffffffffffffffffffffffffffff1602179055508060015f6101000a81548173ffffffffffffffffffffffffffffffffffffffff021916908373ffffffffffffffffffffffffffffffffffffffff1602179055505050610157565b5f5ffd5b5f73ffffffffffffffffffffffffffffffffffffffff82169050919050565b5f6100e8826100bf565b9050919050565b6100f8816100de565b8114610102575f5ffd5b50565b5f81519050610113816100ef565b92915050565b5f5f6040838503121561012f5761012e6100bb565b5b5f61013c85828601610105565b925050602061014d85828601610105565b9150509250929050565b6117e9806101645f395ff3fe608060405234801561000f575f5ffd5b5060043610610034575f3560e01c80630edb271214610038578063c681e9a314610054575b5f5ffd5b610052600480360381019061004d91906106e4565b610072565b005b61005c61041c565b60405161006991906107df565b60405180910390f35b5f83835f9060209261008693929190610800565b906100919190610850565b90505f5f9054906101000a900473ffffffffffffffffffffffffffffffffffffffff1673ffffffffffffffffffffffffffffffffffffffff16633e16b011826040518263ffffffff1660e01b81526004016100ec91906108bd565b602060405180830381865afa158015610107573d5f5f3e3d5ffd5b505050506040513d601f19601f8201168201806040525081019061012b919061090b565b61016c57806040517f76f145ea00000000000000000000000000000000000000000000000000000000815260040161016391906108bd565b60405180910390fd5b5f6040518061010001604052808c81526020018b81526020018a6bffffffffffffffffffffffff1916815260200189815260200188815260200187815260200186868080601f0160208091040260200160405190810160405280939291908181526020018383808284375f81840152601f19601f8201169050808301925050505050505081526020018473ffffffffffffffffffffffffffffffffffffffff16815250905060015f9054906101000a900473ffffffffffffffffffffffffffffffffffffffff1673ffffffffffffffffffffffffffffffffffffffff16639029ad15826040518263ffffffff1660e01b815260040161026b9190610a86565b602060405180830381865afa158015610286573d5f5f3e3d5ffd5b505050506040513d601f19601f820116820180604052508101906102aa919061090b565b6102e0576040517ff281a18300000000000000000000000000000000000000000000000000000000815260040160405180910390fd5b365f868660289080926102f593929190610800565b915091505f82828101906103099190611488565b90505f81610140015160200151604051602001610326919061176c565b6040516020818303038152906040528051906020012090507fdc9c283f73ce17466a01b90d36141b848805a3db129b6b80d581adca52c9b6f35f1b81146103a457806040517f170e89eb00000000000000000000000000000000000000000000000000000000815260040161039b91906108bd565b60405180910390fd5b5f5f1b8261014001515f01516001600881106103c3576103c2611786565b5b6020020151146103d9574260028190555061040b565b6040517fa3790c0e00000000000000000000000000000000000000000000000000000000815260040160405180910390fd5b505050505050505050505050505050565b5f600254905090565b5f604051905090565b5f5ffd5b5f5ffd5b5f819050919050565b61044881610436565b8114610452575f5ffd5b50565b5f813590506104638161043f565b92915050565b5f7fffffffffffffffffffffffffffffffffffffffff00000000000000000000000082169050919050565b61049d81610469565b81146104a7575f5ffd5b50565b5f813590506104b881610494565b92915050565b5f5ffd5b5f5ffd5b5f601f19601f8301169050919050565b7f4e487b71000000000000000000000000000000000000000000000000000000005f52604160045260245ffd5b61050c826104c6565b810181811067ffffffffffffffff8211171561052b5761052a6104d6565b5b80604052505050565b5f61053d610425565b90506105498282610503565b919050565b5f67ffffffffffffffff821115610568576105676104d6565b5b610571826104c6565b9050602081019050919050565b828183375f83830152505050565b5f61059e6105998461054e565b610534565b9050828152602081018484840111156105ba576105b96104c2565b5b6105c584828561057e565b509392505050565b5f82601f8301126105e1576105e06104be565b5b81356105f184826020860161058c565b91505092915050565b5f819050919050565b61060c816105fa565b8114610616575f5ffd5b50565b5f8135905061062781610603565b92915050565b5f5ffd5b5f5ffd5b5f5f83601f84011261064a576106496104be565b5b8235905067ffffffffffffffff8111156106675761066661062d565b5b60208301915083600182028301111561068357610682610631565b5b9250929050565b5f73ffffffffffffffffffffffffffffffffffffffff82169050919050565b5f6106b38261068a565b9050919050565b6106c3816106a9565b81146106cd575f5ffd5b50565b5f813590506106de816106ba565b92915050565b5f5f5f5f5f5f5f5f5f6101008a8c0312156107025761070161042e565b5b5f61070f8c828d01610455565b99505060206107208c828d01610455565b98505060406107318c828d016104aa565b97505060606107428c828d01610455565b96505060808a013567ffffffffffffffff81111561076357610762610432565b5b61076f8c828d016105cd565b95505060a06107808c828d01610619565b94505060c08a013567ffffffffffffffff8111156107a1576107a0610432565b5b6107ad8c828d01610635565b935093505060e06107c08c828d016106d0565b9150509295985092959850929598565b6107d9816105fa565b82525050565b5f6020820190506107f25f8301846107d0565b92915050565b5f5ffd5b5f5ffd5b5f5f85851115610813576108126107f8565b5b83861115610824576108236107fc565b5b6001850283019150848603905094509492505050565b5f82905092915050565b5f82821b905092915050565b5f61085b838361083a565b826108668135610436565b925060208210156108a6576108a17fffffffffffffffffffffffffffffffffffffffffffffffffffffffffffffffff83602003600802610844565b831692505b505092915050565b6108b781610436565b82525050565b5f6020820190506108d05f8301846108ae565b92915050565b5f8115159050919050565b6108ea816108d6565b81146108f4575f5ffd5b50565b5f81519050610905816108e1565b92915050565b5f602082840312156109205761091f61042e565b5b5f61092d848285016108f7565b91505092915050565b61093f81610436565b82525050565b61094e81610469565b82525050565b5f81519050919050565b5f82825260208201905092915050565b8281835e5f83830152505050565b5f61098682610954565b610990818561095e565b93506109a081856020860161096e565b6109a9816104c6565b840191505092915050565b6109bd816105fa565b82525050565b6109cc816106a9565b82525050565b5f61010083015f8301516109e85f860182610936565b5060208301516109fb6020860182610936565b506040830151610a0e6040860182610945565b506060830151610a216060860182610936565b5060808301518482036080860152610a39828261097c565b91505060a0830151610a4e60a08601826109b4565b5060c083015184820360c0860152610a66828261097c565b91505060e0830151610a7b60e08601826109c3565b508091505092915050565b5f6020820190508181035f830152610a9e81846109d2565b905092915050565b5f5ffd5b5f5ffd5b5f81359050610abc816108e1565b92915050565b5f60408284031215610ad757610ad6610aa6565b5b610ae16040610534565b90505f610af084828501610455565b5f830152506020610b0384828501610aae565b60208301525092915050565b5f67ffffffffffffffff821115610b2957610b286104d6565b5b610b32826104c6565b9050602081019050919050565b5f610b51610b4c84610b0f565b610534565b905082815260208101848484011115610b6d57610b6c6104c2565b5b610b7884828561057e565b509392505050565b5f82601f830112610b9457610b936104be565b5b8135610ba4848260208601610b3f565b91505092915050565b5f67ffffffffffffffff82169050919050565b610bc981610bad565b8114610bd3575f5ffd5b50565b5f81359050610be481610bc0565b92915050565b5f63ffffffff82169050919050565b610c0281610bea565b8114610c0c575f5ffd5b50565b5f81359050610c1d81610bf9565b92915050565b5f60a08284031215610c3857610c37610aa6565b5b610c4260a0610534565b90505f610c5184828501610bd6565b5f830152506020610c6484828501610c0f565b6020830152506040610c7884828501610bd6565b6040830152506060610c8c84828501610c0f565b6060830152506080610ca084828501610bd6565b60808301525092915050565b60058110610cb8575f5ffd5b50565b5f81359050610cc981610cac565b92915050565b5f6101c08284031215610ce557610ce4610aa6565b5b610cf06101c0610534565b90505f610cff84828501610cbb565b5f830152506020610d1284828501610cbb565b6020830152506040610d2684828501610cbb565b6040830152506060610d3a84828501610cbb565b6060830152506080610d4e84828501610cbb565b60808301525060a0610d6284828501610cbb565b60a08301525060c0610d7684828501610cbb565b60c08301525060e0610d8a84828501610c0f565b60e083015250610100610d9f84828501610cbb565b61010083015250610120610db584828501610cbb565b61012083015250610140610dcb84828501610cbb565b61014083015250610160610de184828501610cbb565b61016083015250610180610df784828501610cbb565b610180830152506101a0610e0d84828501610cbb565b6101a08301525092915050565b5f67ffffffffffffffff821115610e3457610e336104d6565b5b602082029050919050565b5f610e51610e4c84610e1a565b610534565b90508060208402830185811115610e6b57610e6a610631565b5b835b81811015610e945780610e808882610455565b845260208401935050602081019050610e6d565b5050509392505050565b5f82601f830112610eb257610eb16104be565b5b6008610ebf848285610e3f565b91505092915050565b60038110610ed4575f5ffd5b50565b5f81359050610ee581610ec8565b92915050565b5f67ffffffffffffffff821115610f0557610f046104d6565b5b602082029050919050565b5f60408284031215610f2557610f24610aa6565b5b610f2f6040610534565b90505f610f3e84828501610455565b5f830152506020610f5184828501610455565b60208301525092915050565b5f610f6f610f6a84610eeb565b610534565b90508060408402830185811115610f8957610f88610631565b5b835b81811015610fb25780610f9e8882610f10565b845260208401935050604081019050610f8b565b5050509392505050565b5f82601f830112610fd057610fcf6104be565b5b6007610fdd848285610f5d565b91505092915050565b5f67ffffffffffffffff82111561100057610fff6104d6565b5b602082029050919050565b5f61101d61101884610fe6565b610534565b9050806040840283018581111561103757611036610631565b5b835b81811015611060578061104c8882610f10565b845260208401935050604081019050611039565b5050509392505050565b5f82601f83011261107e5761107d6104be565b5b600f61108b84828561100b565b91505092915050565b5f61070082840312156110aa576110a9610aa6565b5b6110b5610100610534565b90505f6110c484828501610fbc565b5f830152506101c06110d88482850161106a565b6020830152506105806110ed84828501610f10565b6040830152506105c061110284828501610f10565b60608301525061060061111784828501610f10565b60808301525061064061112c84828501610f10565b60a08301525061068061114184828501610f10565b60c0830152506106c061115684828501610f10565b60e08301525092915050565b5f610740828403121561117857611177610aa6565b5b6111826060610534565b90505f61119184828501610ed7565b5f8301525060206111a484828501610ed7565b60208301525060406111b884828501611094565b60408301525092915050565b5f67ffffffffffffffff8211156111de576111dd6104d6565b5b602082029050919050565b5f6111fb6111f6846111c4565b610534565b9050806020840283018581111561121557611214610631565b5b835b8181101561123e578061122a8882610455565b845260208401935050602081019050611217565b5050509392505050565b5f82601f83011261125c5761125b6104be565b5b60056112698482856111e9565b91505092915050565b5f610960828403121561128857611287610aa6565b5b61129260e0610534565b90505f6112a184828501610e9e565b5f830152506101006112b584828501611162565b6020830152506108406112ca84828501610c0f565b6040830152506108606112df84828501611248565b6060830152506109006112f484828501610c0f565b60808301525061092061130984828501610aae565b60a08301525061094082013567ffffffffffffffff81111561132e5761132d610aaa565b5b61133a848285016105cd565b60c08301525092915050565b5f6103c0828403121561135c5761135b610aa6565b5b611367610160610534565b90505f61137684828501610ac2565b5f83015250604061138984828501610455565b602083015250606082013567ffffffffffffffff8111156113ad576113ac610aaa565b5b6113b984828501610b80565b60408301525060806113cd84828501610bd6565b60608301525060a06113e184828501610c0f565b60808301525060c06113f584828501610455565b60a08301525060e061140984828501610ac2565b60c08301525061012061141e84828501610455565b60e08301525061014061143384828501610c23565b610100830152506101e061144984828501610ccf565b610120830152506103a082013567ffffffffffffffff81111561146f5761146e610aaa565b5b61147b84828501611272565b6101408301525092915050565b5f6020828403121561149d5761149c61042e565b5b5f82013567ffffffffffffffff8111156114ba576114b9610432565b5b6114c684828501611346565b91505092915050565b7f4e487b71000000000000000000000000000000000000000000000000000000005f52602160045260245ffd5b6003811061150d5761150c6114cf565b5b50565b5f81905061151d826114fc565b919050565b5f61152c82611510565b9050919050565b61153c81611522565b82525050565b5f60079050919050565b5f81905092915050565b5f819050919050565b604082015f8201516115735f850182610936565b5060208201516115866020850182610936565b50505050565b5f611597838361155f565b60408301905092915050565b5f602082019050919050565b6115b881611542565b6115c2818461154c565b92506115cd82611556565b805f5b838110156115fd5781516115e4878261158c565b96506115ef836115a3565b9250506001810190506115d0565b505050505050565b5f600f9050919050565b5f81905092915050565b5f819050919050565b5f602082019050919050565b61163781611605565b611641818461160f565b925061164c82611619565b805f5b8381101561167c578151611663878261158c565b965061166e83611622565b92505060018101905061164f565b505050505050565b61070082015f8201516116995f8501826115af565b5060208201516116ad6101c085018261162e565b5060408201516116c161058085018261155f565b5060608201516116d56105c085018261155f565b5060808201516116e961060085018261155f565b5060a08201516116fd61064085018261155f565b5060c082015161171161068085018261155f565b5060e08201516117256106c085018261155f565b50505050565b61074082015f8201516117405f850182611533565b5060208201516117536020850182611533565b5060408201516117666040850182611684565b50505050565b5f610740820190506117805f83018461172b565b92915050565b7f4e487b71000000000000000000000000000000000000000000000000000000005f52603260045260245ffdfea2646970667358221220934099dcfcc9adc650d31519036cb85d467682b182104b9d9993a448a139cf7264736f6c634300081c0033","linkReferences":{}},"methodIdentifiers":{"getLatestSolutionTimestamp()":"c681e9a3","validateSolution(bytes32,bytes32,bytes20,bytes32,bytes,uint256,bytes,address)":"0edb2712"},"id":41}